:100000004EC0ADC167C066C065C064C063C062C099
:1000100061C060C05FC05EC05DC05CC05BC0040307
:10002000090424036A006F00680061006E006E001E
:10003000650073002E006B0072007500640065009F
:100040002E006400650014037500730062002D002B
:10005000520065006C00610079001201100100007F
:100060000008C016DF0500010102000109021B00A3
:1000700001010080190904000000030000000921AB
:10008000010100012216000600FF0901A10115006F
:1000900026FF00750895010900B20201C000112475
:1000A0001FBECFE5D1E0DEBFCDBF10E0A0E6B0E0DF
:1000B000E8E5F7E002C005900D92A236B107D9F746
:1000C00010E0A2E6B0E001C01D92AF38B107E1F741
:1000D000BCD240C395CF85B7836085BF8BB78064A2
:1000E0008BBF08951F93CF93DF939091750093502A
:1000F00097FDA1C020917200809171008D3209F0AE
:1001000098C0983009F095C0CCE0D0E0C21BD1096E
:10011000C758DF4F83EC809365008AE580936000C9
:10012000109263008881807621F0CE0168D2282F5A
:1001300077C09A8110926E008981882321F41092F1
:100140006F0022E067C0853019F49093760061C09B
:10015000863009F04FC08B81813041F48AE590E010
:10016000909374008093730022E140C0823041F488
:100170008CE690E090937400809373002BE136C07E
:100180008330F9F48A81882341F48EE190E09093E2
:1001900074008093730024E029C0813041F482E22E
:1001A00090E0909374008093730024E21FC082302B
:1001B000E1F486E490E0909374008093730024E16E
:1001C00015C0813241F48EE790E0909374008093E3
:1001D000730029E00BC0823241F487E890E09093ED
:1001E00074008093730026E101C020E080E48093D6
:1001F000630016C0883021F421E088E790E00CC04D
:10020000893019F49093780004C08A3011F421E009
:1002100001C020E08EE690E090937400809373001C
:100220008F81882321F48E81821708F4282F209350
:100230006100109275008091600084FF49C0809138
:1002400061008F3F09F444C0182F893008F018E08E
:10025000811B809361008091650098E889278093D5
:100260006500112341F12091730030917400809159
:10027000630086FF0DC0A6E6B0E080E090E0F901E3
:10028000E80FF91FE491ED9301961817C1F708C024
:10029000912FD901E6E6F0E08D9181939150E1F73D
:1002A0001150812F90E01F5F0196820F931F909352
:1002B00074008093730086E690E0612F39D0612F3F
:1002C0006C5F6C3019F08FEF809361006093600079
:1002D0009AE086B3857031F49150D9F71092760088
:1002E0001092700010E0992309F411E080916200EF
:1002F000811729F0112309F4C9D110936200DF910D
:10030000CF911F910895A82FB92F80E090E041E090
:1003100050EA60956F5F58F42D9138EF82279795DA
:10032000879510F0842795273F5FC8F3F3CF089592
:10033000EADF8D939D930895A6E088279927AA95D3
:1003400069F00197E1F3B099FCCFB09BFECF81E05B
:100350009927A6B3019611F0A570D9F70895CF9308
:10036000CFB7CF93B09BFECFB09B0BC0B09B09C063
:10037000B09B07C0B09B05C0B09B03C0B09B01C041
:10038000D3C00F92DF93C0917200DD27C758DF4FB3
:10039000012EB09B03C0DF910F90E6CF2F930F93F8
:1003A0001F934F932FEF4F6F06B300FB20F95F931E
:1003B0003F9350E03BE065C016B30126502950FD45
:1003C000C89556B3012700FB25F92F7306B3B1F08A
:1003D0005027102710FB26F906B22230F0F000C09B
:1003E00016B3012700FB27F90126502906B2243055
:1003F000E8F54F77206816B30000F6CF50274F7D01
:10040000206206B2102F000000C006B3002650295B
:10041000102710FB26F906B2E2CF4F7B06B320640B
:1004200000C0DACF01265029157006B269F14E7F5F
:100430002160012F16B328C0002650294D7F06B237
:100440002260102F29C0012650294B7F06B224605C
:10045000012F2DC016B301265029477F28600000C8
:1004600006B22EC04F7E06B3206130C0422706B3CD
:10047000499300265029102706B24FEF10FB20F9B0
:10048000297F16B379F2157059F10126502906B269
:10049000012700FB21F9237F06B371F200265029C2
:1004A0003150D0F006B2102710FB22F9277E16B388
:1004B00051F201265029012700FB06B223F92F7CB7
:1004C00049F2000006B3102710FB24F9002650293A
:1004D00006B22F7939F270CF10E41ABF002717C087
:1004E0003B503195C31BD04010E41ABF0881033C38
:1004F000F9F00B34E9F0209170001981110F1213FB
:10050000EDCF093651F10D3211F0013E39F700936C
:1005100077003F915F914F911F910F912F91DF9144
:100520000F90CAB7C6FD1ECFCF91CFBFCF91189500
:1005300000917700002369F310917500112321F5D4
:10054000343022F1309375000093710010917200E5
:100550003BE0311B3093720019C0009175000130EF
:100560009CF40AE53091600034FD11C000936000F6
:10057000C5E6D0E010C0052710E000C021C0052767
:1005800010E0C89508BB14C03AE501C032ED032E57
:10059000C0E0D0E032E017B31560C09A08B317BBD3
:1005A00055E020E84FEF20FF052708BB279517955A
:1005B0001C3F28F700004552B0F720FF052727957C
:1005C00008BB17951C3FB8F629913A9561F70A7F49
:1005D00010917600110F08BBC250D04011F010935B
:1005E000700010E41ABF016017B31A7F402F4A7FD2
:1005F00054E05A95F1F708BB17BB48BB8ACFFC0102
:100600008181882319F08130F1F412C0808187FF45
:100610001AC0868197810197B1F481E080936400CC
:1006200084E690E0909374008093730081E00895D5
:100630008381882341F4828180FF02C0C19A01C076
:10064000C19880E0089580E0089580E090E06CD04B
:100650008F3F09F081BF2EE088E190E00FB6F8945B
:10066000A89581BD0FBE21BD36DDB89A20E04DE1D1
:1006700050E104C0A895CA010197F1F72150D1F7C4
:10068000B898B99A7894A8952DDDFDCFDF92EF92B6
:10069000FF920F931F93CF93DF9300E080E8D82E53
:1006A000EE24FF241D2D100F11BF46DEEC0189E062
:1006B000C433D8070CF0102FD6940894E11CF11C19
:1006C00088E0E816F10411F0012FECCF115011BFB2
:1006D0001F5FE12EFF240894E11CF11C13C02CDEE7
:1006E0009C012453394037FF03C0309521953F4F7B
:1006F0002C173D0714F09E0101C011B781B78F5F21
:1007000081BFE90181B790E0E816F90644F711BF0F
:1007100061B780E090E010D0DF91CF911F910F91F1
:10072000FF90EF90DF900895E199FECF1FBA8EBB46
:10073000E09A99278DB30895262FE199FECF1CBA30
:100740001FBA8EBB2DBB0FB6F894E29AE19A0FBE8A
:0807500001960895F894FFCF13
:020758005AFF46
:00000001FF
