:100000000C946A000C94AF010C9487000C94870048
:100010000C9487000C9487000C9487000C94870044
:100020000C9487000C9487000C9487000C94870034
:100030000C9487000C9487000C9487000C94870024
:100040000C9487000C9487000C9487000C94870014
:100050000C9487000403090424036A006F006800FD
:1000600061006E006E00650073002E006B00720070
:100070007500640065002E006400650014037500BF
:10008000730062002D00520065006C006100790071
:100090001201100100000008C016DF050001010276
:1000A000000109021B000101008019090400000081
:1000B000030000000921010100012216000600FFD3
:1000C0000901A101150026FF00750895010900B27C
:1000D0000201C00011241FBECFE5D4E0DEBFCDBFBA
:1000E00010E0A0E6B0E0E6EFF6E002C005900D9269
:1000F000AE3BB107D9F710E0AEEBB0E001C01D9206
:10010000AA3EB107E1F70E9451030C9479030C94C5
:10011000000085B7836085BF8BB780648BBF08956F
:100120001F93CF93DF939091D000935097FDA2C07F
:100130002091CD008091CC008D3209F099C098308B
:1001400009F096C0CCE0D0E0C21BD109CC52DF4F01
:1001500083EC8093C0008AE5809360001092BE001B
:100160008881807629F0CE010E94FE02282F77C078
:100170009A811092C9008981882321F41092CA00C3
:1001800022E067C0853019F49093D10061C08630B9
:1001900009F04FC08B81813041F480E990E0909369
:1001A000CF008093CE0022E140C0823041F482EA49
:1001B00090E09093CF008093CE002BE136C0833047
:1001C000F9F48A81882341F484E590E09093CF008C
:1001D0008093CE0024E029C0813041F488E590E08E
:1001E0009093CF008093CE0024E21FC08230E1F4D0
:1001F0008CE790E09093CF008093CE0024E115C06F
:10020000813241F484EB90E09093CF008093CE0054
:1002100029E00BC0823241F48DEB90E09093CF0047
:100220008093CE0026E101C020E080E48093BE00F0
:1002300016C0883021F421E083ED90E00CC08930B5
:1002400019F49093D30004C08A3011F421E001C066
:1002500020E089EC90E09093CF008093CE008F81D6
:10026000882321F48E81821708F4282F20936100BF
:100270001092D0008091600084FF4AC0809161009C
:100280008F3F09F445C0182F893008F018E0811B12
:10029000809361008091C00098E889278093C00016
:1002A000112341F12091CE003091CF008091BE000A
:1002B00086FF0DC0A1ECB0E080E090E0F901E80F0E
:1002C000F91FE491ED9301961817C1F708C0912F1B
:1002D000D901E1ECF0E08D9181939150E1F711505B
:1002E000812F90E01F5F0196820F931F9093CF00A4
:1002F0008093CE0081EC90E0612F0E94AB01612FD2
:100300006C5F6C3019F08FEF809361006093600038
:100310009AE080B3847131F49150D9F71092D100F2
:100320001092CB00DF91CF911F910895A82FB92F84
:1003300080E090E041E050EA60956F5F58F42D91C5
:1003400038EF82279795879510F0842795273F5F90
:10035000C8F3F3CF0895EADF8D939D930895CF936B
:10036000CFB7CF93849BFECF849B09C0849B07C0EB
:10037000849B05C0849B03C0849B01C0A1C0DF9304
:10038000C091CD00DD27CC52DF4F849B02C0DF91AE
:10039000EBCF2F930F931F9300B32FEF04FB20F9A4
:1003A0004F933F9310B34FEF012704FB21F93BE03C
:1003B00031C04E7F012F10B3216028C0102F4D7F18
:1003C0002260000000B329C04B7F2460012F000091
:1003D00010B32BC010B3477F28602AC04F7E00B3F4
:1003E00020612CC04F7D10B320622FC04F7B00B323
:1003F000206432C0422700B349934FEF000010271A
:1004000014FB20F910B31471C9F1297F91F201276F
:1004100004FB21F900B3237F89F2315058F11027F2
:1004200014FB22F910B3277E79F2012704FB23F98C
:100430002F7C81F200B3102714FB24F92F7971F27D
:1004400000C010B3012704FB25F92F7359F200C037
:1004500000B3102714FB26F9223040F200C010B37D
:10046000012704FB27F9243028F64F77206810B3C2
:100470000000F9CF10E41ABF002717C03B50319598
:10048000C31BD04010E41ABF0881033CE9F00B34D1
:10049000D9F02091CB001981110F1213EDCF09363D
:1004A00041F10D3211F0013E39F70093D2003F9136
:1004B0004F911F910F912F91DF91CAB7C6FD52CF77
:1004C000CF91CFBFCF9118950091D200002379F33F
:1004D0001091D000112349F534304AF13093D00007
:1004E0000093CC001091CD003BE0311B3093CD0048
:1004F0001EC00091D0000130C4F40AE530916000C4
:1005000034FD17C000936000C0ECD0E016C0052792
:1005100010E002BB1FC0052722C0052727C0052702
:100520002CC0052710E002BB33C04AE503C042EDF2
:1005300001C0432FC4E1D0E032E011B31461949ABA
:1005400002B311BB5F9354E120E820FF052702BBF3
:10055000279517951C3FD8F620FF0527279502BB46
:1005600017951C3FC0F620FF05272795179502BB5E
:100570001C3F98F620FF0527279517951C3F02BBC7
:1005800070F600C0499120FF052702BB27951795FB
:100590001C3F38F620FF0527279502BB17951C3F07
:1005A00038F520FF05272795179502BB1C3F10F54E
:1005B00020FF0527279517951C3F02BBE8F4242F41
:1005C0003A9519F60B7E5F9102BB1091D100110F85
:1005D000C651D04011F01093CB0010E41ABF006157
:1005E00011B31B7E402F4B7E02BB11BB42BB5FCFC2
:1005F0000527D3CF0527D8CF0527DDCFCF93DF93AE
:10060000EC018981882399F4888187FF46C08E8117
:100610009F81019709F041C087E18093BF008FEB74
:1006200090E09093CF008093CE0081E037C081307E
:10063000A1F5EB81E73188F5F0E0EE0FFF1FEE0F3B
:10064000FF1FDF01AE59BF4F9C9111962C9111975E
:10065000EC59FF4FE08113963C918A81882389F4FD
:100660008BB3909598239BBB88B32095282328BBF8
:1006700085B3E095E823E5BB82B33095382332BBE0
:100680000CC08BB3892B8BBB88B3822B88BB85B303
:100690008E2B85BB82B3832B82BB80E0DF91CF9111
:1006A00008952EE088E190E00FB6F894A89581BDFA
:1006B0000FBE21BD0E9489008C9A20E048EB5BE0D0
:1006C00004C0A895CA010197F1F72150D1F78C9881
:1006D000B89A8FEF8ABB87B38E6187BB84B3836C74
:1006E00084BB81B38B6E81BB7894A8950E949000E7
:0606F000FCCFF894FFCFDF
:1006F6005AFF000100000100000002000000040093
:10070600000008000000100000002000000040006B
:100716000000800000000002000000040000000845
:1007260000000010000000000100000002000000B0
:1007360040000000800000000001000000020000F0
:0E0746000008000000200000004000000080BD
:00000001FF
