:100000000C946A000C94AF010C9487000C94870048
:100010000C9487000C9487000C9487000C94870044
:100020000C9487000C9487000C9487000C94870034
:100030000C9487000C9487000C9487000C94870024
:100040000C9487000C9487000C9487000C94870014
:100050000C9487000403090424036A006F006800FD
:1000600061006E006E00650073002E006B00720070
:100070007500640065002E006400650014037500BF
:10008000730062002D00520065006C006100790071
:100090001201100100000008C016DF050001010276
:1000A000000109021B000101008019090400000081
:1000B000030000000921010100012216000600FFD3
:1000C0000901A101150026FF00750895010900B27C
:1000D0000201C00011241FBECFE5D8E0DEBFCDBFB6
:1000E00010E0A0E6B0E0E8EEF6E002C005900D9268
:1000F000AE3BB107D9F710E0AEEBB0E001C01D9206
:10010000AA3EB107E1F70E944A030C9472030C94D3
:10011000000085B7836085BF8BB780648BBF08956F
:100120001F93CF93DF939091D000935097FDA2C07F
:100130002091CD008091CC008D3209F099C098308B
:1001400009F096C0CCE0D0E0C21BD109CC52DF4F01
:1001500083EC8093C0008AE5809360001092BE001B
:100160008881807629F0CE010E94F702282F77C07F
:100170009A811092C9008981882321F41092CA00C3
:1001800022E067C0853019F49093D10061C08630B9
:1001900009F04FC08B81813041F480E990E0909369
:1001A000CF008093CE0022E140C0823041F482EA49
:1001B00090E09093CF008093CE002BE136C0833047
:1001C000F9F48A81882341F484E590E09093CF008C
:1001D0008093CE0024E029C0813041F488E590E08E
:1001E0009093CF008093CE0024E21FC08230E1F4D0
:1001F0008CE790E09093CF008093CE0024E115C06F
:10020000813241F484EB90E09093CF008093CE0054
:1002100029E00BC0823241F48DEB90E09093CF0047
:100220008093CE0026E101C020E080E48093BE00F0
:1002300016C0883021F421E083ED90E00CC08930B5
:1002400019F49093D30004C08A3011F421E001C066
:1002500020E089EC90E09093CF008093CE008F81D6
:10026000882321F48E81821708F4282F20936100BF
:100270001092D0008091600084FF4AC0809161009C
:100280008F3F09F445C0182F893008F018E0811B12
:10029000809361008091C00098E889278093C00016
:1002A000112341F12091CE003091CF008091BE000A
:1002B00086FF0DC0A1ECB0E080E090E0F901E80F0E
:1002C000F91FE491ED9301961817C1F708C0912F1B
:1002D000D901E1ECF0E08D9181939150E1F711505B
:1002E000812F90E01F5F0196820F931F9093CF00A4
:1002F0008093CE0081EC90E0612F0E94AB01612FD2
:100300006C5F6C3019F08FEF809361006093600038
:100310009AE080B3847131F49150D9F71092D100F2
:100320001092CB00DF91CF911F910895A82FB92F84
:1003300080E090E041E050EA60956F5F58F42D91C5
:1003400038EF82279795879510F0842795273F5F90
:10035000C8F3F3CF0895EADF8D939D930895CF936B
:10036000CFB7CF93849BFECF849B0BC0849B09C0E7
:10037000849B07C0849B05C0849B03C0849B01C0F1
:10038000C0C0C091CD00DF93DD27CC52DF4F2F934B
:100390002FEF849B03C02F91DF91E6CF0F931F9324
:1003A0004F936F9300B304FB20F93F933BE05F93BF
:1003B0001EC04E7F012F10B31471E1F021600000C8
:1003C0001DC0102F4D7F2260000000B3047191F01A
:1003D0001DC04B7F2460012F000010B3147151F039
:1003E0001EC010B3147131F0477F28601BC010B3DA
:1003F000147109F462C04FEF297FD9F2012704FB81
:1004000021F900B30471B1F3237FD9F2102714FB53
:1004100022F900C010B3147169F3277ED1F20127CD
:1004200004FB23F92F7CE9F200B3047119F31027C0
:1004300014FB24F92F7929F100C010B31471E9F1EC
:10044000012704FB25F92F7311F100C000B30471DB
:10045000A1F1102714FB26F92230F8F000C010B3E8
:10046000147159F1012704FB27F92430E0F04227E9
:10047000000000B34993102714FB20F93150C8F055
:10048000B6CF4F7E00B30471C1F02061D3CF20629C
:1004900010B3147191F04F7DD6CF4F7B00B3047130
:1004A00061F02064D9CF4F7710B3147131F0206818
:1004B000DCCF10E41ABF002717C03B503195C31B97
:1004C000D04010E41ABF0881033CF9F00B34E9F086
:1004D0002091CB001981110F1213EDCF093651F184
:1004E0000D3211F0013E39F70093D2005F913F9138
:1004F0006F914F911F910F912F91DF91CAB7C6FD58
:1005000031CFCF91CFBFCF9118950091D20000236A
:1005100069F31091D000112331F5343032F130936A
:10052000D0000093CC001091CD003BE0311B309304
:10053000CD001BC00091D0000130ACF40AE5309131
:10054000600034FD13C000936000C0ECD0E012C026
:1005500005271127000019C0052711271FC00527EF
:100560001127000024C04AE502C032ED432FC4E148
:10057000D0E032E011B31461949A02B311BB54E19C
:1005800020E866E020FF0527279502BB17951C3F52
:10059000F8F66A95B9F720FF05272795000002BBFA
:1005A00017951C3FC8F620FF05272795179566E08D
:1005B0001C3F02BBA0F629913A9521F70B7E1091C2
:1005C000D100110F02BBC651D04011F01093CB00E7
:1005D00010E41ABF006111B31B7E402F4B7E53E025
:1005E0005A95F1F700C002BB11BB42BB7FCFCF933E
:1005F000DF93EC018981882399F4888187FF46C0C5
:100600008E819F81019709F041C087E18093BF00EF
:100610008FEB90E09093CF008093CE0081E037C0C5
:100620008130A1F5EB81E73188F5F0E0EE0FFF1F97
:10063000EE0FFF1FDF01AE59BF4F9C9111962C9119
:100640001197EC59FF4FE08113963C918A818823E2
:1006500089F48BB3909598239BBB88B3209528236E
:1006600028BB85B3E095E823E5BB82B330953823FA
:1006700032BB0CC08BB3892B8BBB88B3822B88BB5E
:1006800085B38E2B85BB82B3832B82BB80E0DF9149
:10069000CF9108952EE088E190E00FB6F894A895E8
:1006A00081BD0FBE21BD0E9489008C9A20E046EAE0
:1006B0005EE004C0A895CA010197F1F72150D1F777
:1006C0008C98B89A8FEF8ABB87B38E6187BB84B34F
:1006D000836C84BB81B38B6E81BB7894A8950E9498
:0806E0009000FCCFF894FFCF5D
:1006E8005AFF0001000001000000020000000400A1
:1006F800000008000000100000002000000040007A
:100708000000800000000002000000040000000853
:1007180000000010000000000100000002000000BE
:1007280040000000800000000001000000020000FE
:0E0738000008000000200000004000000080CB
:00000001FF
