:100000000C946A000C94AF010C9487000C94870048
:100010000C9487000C9487000C9487000C94870044
:100020000C9487000C9487000C9487000C94870034
:100030000C9487000C9487000C9487000C94870024
:100040000C9487000C9487000C9487000C94870014
:100050000C9487000403090424036A006F006800FD
:1000600061006E006E00650073002E006B00720070
:100070007500640065002E006400650014037500BF
:10008000730062002D00520065006C006100790071
:100090001201100100000008C016DF050001010276
:1000A000000109021B000101008019090400000081
:1000B000030000000921010100012216000600FFD3
:1000C0000901A101150026FF00750895010900B27C
:1000D0000201C00011241FBECFE5D8E0DEBFCDBFB6
:1000E00010E0A0E6B0E0E8EFF6E002C005900D9267
:1000F000AE3BB107D9F710E0AEEBB0E001C01D9206
:10010000AA3EB107E1F70E9452030C947A030C94C3
:10011000000085B7836085BF8BB780648BBF08956F
:100120001F93CF93DF939091D000935097FDA2C07F
:100130002091CD008091CC008D3209F099C098308B
:1001400009F096C0CCE0D0E0C21BD109CC52DF4F01
:1001500083EC8093C0008AE5809360001092BE001B
:100160008881807629F0CE010E94FF02282F77C077
:100170009A811092C9008981882321F41092CA00C3
:1001800022E067C0853019F49093D10061C08630B9
:1001900009F04FC08B81813041F480E990E0909369
:1001A000CF008093CE0022E140C0823041F482EA49
:1001B00090E09093CF008093CE002BE136C0833047
:1001C000F9F48A81882341F484E590E09093CF008C
:1001D0008093CE0024E029C0813041F488E590E08E
:1001E0009093CF008093CE0024E21FC08230E1F4D0
:1001F0008CE790E09093CF008093CE0024E115C06F
:10020000813241F484EB90E09093CF008093CE0054
:1002100029E00BC0823241F48DEB90E09093CF0047
:100220008093CE0026E101C020E080E48093BE00F0
:1002300016C0883021F421E083ED90E00CC08930B5
:1002400019F49093D30004C08A3011F421E001C066
:1002500020E089EC90E09093CF008093CE008F81D6
:10026000882321F48E81821708F4282F20936100BF
:100270001092D0008091600084FF4AC0809161009C
:100280008F3F09F445C0182F893008F018E0811B12
:10029000809361008091C00098E889278093C00016
:1002A000112341F12091CE003091CF008091BE000A
:1002B00086FF0DC0A1ECB0E080E090E0F901E80F0E
:1002C000F91FE491ED9301961817C1F708C0912F1B
:1002D000D901E1ECF0E08D9181939150E1F711505B
:1002E000812F90E01F5F0196820F931F9093CF00A4
:1002F0008093CE0081EC90E0612F0E94AB01612FD2
:100300006C5F6C3019F08FEF809361006093600038
:100310009AE080B3847131F49150D9F71092D100F2
:100320001092CB00DF91CF911F910895A82FB92F84
:1003300080E090E041E050EA60956F5F58F42D91C5
:1003400038EF82279795879510F0842795273F5F90
:10035000C8F3F3CF0895EADF8D939D930895CF936B
:10036000CFB7CF93849BFECF849B0BC0849B09C0E7
:10037000849B07C0849B05C0849B03C0849B01C0F1
:10038000D3C00F92DF93C091CD00DD27CC52DF4F59
:10039000012E849B03C0DF910F90E6CF2F930F9324
:1003A0001F934F932FEF4F6F00B304FB20F95F9320
:1003B0003F9350E03BE065C010B30126502954FD47
:1003C000C89550B3012704FB25F92F7300B3B1F092
:1003D0005027102714FB26F900B22230F0F000C09D
:1003E00010B3012704FB27F90126502900B224305D
:1003F000E8F54F77206810B30000F6CF50274F7D07
:10040000206200B2102F000000C000B30026502967
:10041000102714FB26F900B2E2CF4F7B00B3206413
:1004200000C0DACF01265029147100B269F14E7F65
:100430002160012F10B328C0002650294D7F00B243
:100440002260102F29C0012650294B7F00B2246062
:10045000012F2DC010B301265029477F28600000CE
:1004600000B22EC04F7E00B3206130C0422700B3DF
:10047000499300265029102700B24FEF14FB20F9B2
:10048000297F10B379F2147159F10126502900B275
:10049000012704FB21F9237F00B371F200265029C4
:1004A0003150D0F000B2102714FB22F9277E10B390
:1004B00051F201265029012704FB00B223F92F7CB9
:1004C00049F2000000B3102714FB24F9002650293C
:1004D00000B22F7939F270CF10E41ABF002717C08D
:1004E0003B503195C31BD04010E41ABF0881033C38
:1004F000F9F00B34E9F02091CB001981110F1213A0
:10050000EDCF093651F10D3211F0013E39F700936C
:10051000D2003F915F914F911F910F912F91DF91E9
:100520000F90CAB7C6FD1ECFCF91CFBFCF91189500
:100530000091D200002369F31091D000112321F51E
:10054000343022F13093D0000093CC001091CD00D4
:100550003BE0311B3093CD0019C00091D000013039
:100560009CF40AE53091600034FD11C000936000F6
:10057000C0ECD0E010C0052710E000C021C0052766
:1005800010E0C89502BB14C03AE501C032ED032E5D
:10059000C0E0D0E032E011B31461949A02B311BB11
:1005A00054E120E84FEF20FF052702BB2795179560
:1005B0001C3F28F700004552B0F720FF052727957C
:1005C00002BB17951C3FB8F629913A9561F70B7E4F
:1005D0001091D100110F02BBC250D04011F0109306
:1005E000CB0010E41ABF006111B31B7E402F4B7E7D
:1005F00054E05A95F1F702BB11BB42BB8ACFCF93AF
:10060000DF93EC018981882399F4888187FF46C0B4
:100610008E819F81019709F041C087E18093BF00DF
:100620008FEB90E09093CF008093CE0081E037C0B5
:100630008130A1F5EB81E73188F5F0E0EE0FFF1F87
:10064000EE0FFF1FDF01AE59BF4F9C9111962C9109
:100650001197EC59FF4FE08113963C918A818823D2
:1006600089F48BB3909598239BBB88B3209528235E
:1006700028BB85B3E095E823E5BB82B330953823EA
:1006800032BB0CC08BB3892B8BBB88B3822B88BB4E
:1006900085B38E2B85BB82B3832B82BB80E0DF9139
:1006A000CF9108952EE088E190E00FB6F894A895D8
:1006B00081BD0FBE21BD0E9489008C9A20E04DE1D2
:1006C00050E104C0A895CA010197F1F72150D1F774
:1006D0008C98B89A8FEF8ABB87B38E6187BB84B33F
:1006E000836C84BB81B38B6E81BB7894A8950E9488
:0806F0009000FCCFF894FFCF4D
:1006F8005AFF000100000100000002000000040091
:100708000000080000001000000020000000400069
:100718000000800000000002000000040000000843
:1007280000000010000000000100000002000000AE
:1007380040000000800000000001000000020000EE
:0E0748000008000000200000004000000080BB
:00000001FF
